{
  "_format": "hh-sol-artifact-1",
  "contractName": "Avasara",
  "sourceName": "contracts/Avasara.sol",
  "abi": [
    {
      "anonymous": false,
      "inputs": [
        {
          "indexed": true,
          "internalType": "address",
          "name": "user",
          "type": "address"
        },
        {
          "indexed": false,
          "internalType": "bytes32",
          "name": "ipfsHash",
          "type": "bytes32"
        }
      ],
      "name": "ProfileUpdated",
      "type": "event"
    },
    {
      "anonymous": false,
      "inputs": [
        {
          "indexed": true,
          "internalType": "address",
          "name": "user",
          "type": "address"
        },
        {
          "indexed": false,
          "internalType": "bytes32",
          "name": "ipfsHash",
          "type": "bytes32"
        }
      ],
      "name": "UserRegistered",
      "type": "event"
    },
    {
      "inputs": [
        {
          "internalType": "uint256",
          "name": "_start",
          "type": "uint256"
        },
        {
          "internalType": "uint256",
          "name": "_count",
          "type": "uint256"
        }
      ],
      "name": "getRegisteredUsers",
      "outputs": [
        {
          "internalType": "address[]",
          "name": "",
          "type": "address[]"
        }
      ],
      "stateMutability": "view",
      "type": "function"
    },
    {
      "inputs": [],
      "name": "getTotalUsers",
      "outputs": [
        {
          "internalType": "uint256",
          "name": "",
          "type": "uint256"
        }
      ],
      "stateMutability": "view",
      "type": "function"
    },
    {
      "inputs": [
        {
          "internalType": "uint8",
          "name": "_location",
          "type": "uint8"
        }
      ],
      "name": "getTotalUsersByLocation",
      "outputs": [
        {
          "internalType": "uint256",
          "name": "",
          "type": "uint256"
        }
      ],
      "stateMutability": "view",
      "type": "function"
    },
    {
      "inputs": [
        {
          "internalType": "uint8",
          "name": "_skill",
          "type": "uint8"
        }
      ],
      "name": "getTotalUsersBySkill",
      "outputs": [
        {
          "internalType": "uint256",
          "name": "",
          "type": "uint256"
        }
      ],
      "stateMutability": "view",
      "type": "function"
    },
    {
      "inputs": [
        {
          "internalType": "address",
          "name": "_user",
          "type": "address"
        }
      ],
      "name": "getUserProfile",
      "outputs": [
        {
          "components": [
            {
              "internalType": "bytes32",
              "name": "ipfsHash",
              "type": "bytes32"
            },
            {
              "internalType": "uint8",
              "name": "location",
              "type": "uint8"
            },
            {
              "internalType": "uint8",
              "name": "primarySkill",
              "type": "uint8"
            },
            {
              "internalType": "uint8",
              "name": "secondarySkill",
              "type": "uint8"
            },
            {
              "internalType": "enum Avasara.ProfessionalStatus",
              "name": "status",
              "type": "uint8"
            },
            {
              "internalType": "enum Avasara.Language",
              "name": "language",
              "type": "uint8"
            },
            {
              "internalType": "uint8",
              "name": "yearsOfExperience",
              "type": "uint8"
            },
            {
              "internalType": "bool",
              "name": "exists",
              "type": "bool"
            }
          ],
          "internalType": "struct Avasara.UserProfile",
          "name": "",
          "type": "tuple"
        }
      ],
      "stateMutability": "view",
      "type": "function"
    },
    {
      "inputs": [
        {
          "internalType": "uint8",
          "name": "_location",
          "type": "uint8"
        }
      ],
      "name": "getUsersByLocation",
      "outputs": [
        {
          "internalType": "address[]",
          "name": "",
          "type": "address[]"
        }
      ],
      "stateMutability": "view",
      "type": "function"
    },
    {
      "inputs": [
        {
          "internalType": "uint8",
          "name": "_location",
          "type": "uint8"
        },
        {
          "internalType": "uint256",
          "name": "_start",
          "type": "uint256"
        },
        {
          "internalType": "uint256",
          "name": "_count",
          "type": "uint256"
        }
      ],
      "name": "getUsersByLocationPaginated",
      "outputs": [
        {
          "internalType": "address[]",
          "name": "",
          "type": "address[]"
        }
      ],
      "stateMutability": "view",
      "type": "function"
    },
    {
      "inputs": [
        {
          "internalType": "uint8",
          "name": "_skill",
          "type": "uint8"
        }
      ],
      "name": "getUsersBySkill",
      "outputs": [
        {
          "internalType": "address[]",
          "name": "",
          "type": "address[]"
        }
      ],
      "stateMutability": "view",
      "type": "function"
    },
    {
      "inputs": [
        {
          "internalType": "uint8",
          "name": "_skill",
          "type": "uint8"
        },
        {
          "internalType": "uint256",
          "name": "_start",
          "type": "uint256"
        },
        {
          "internalType": "uint256",
          "name": "_count",
          "type": "uint256"
        }
      ],
      "name": "getUsersBySkillPaginated",
      "outputs": [
        {
          "internalType": "address[]",
          "name": "",
          "type": "address[]"
        }
      ],
      "stateMutability": "view",
      "type": "function"
    },
    {
      "inputs": [
        {
          "internalType": "bytes32",
          "name": "_ipfsHash",
          "type": "bytes32"
        },
        {
          "internalType": "uint8",
          "name": "_location",
          "type": "uint8"
        },
        {
          "internalType": "uint8",
          "name": "_primarySkill",
          "type": "uint8"
        },
        {
          "internalType": "uint8",
          "name": "_secondarySkill",
          "type": "uint8"
        },
        {
          "internalType": "enum Avasara.ProfessionalStatus",
          "name": "_status",
          "type": "uint8"
        },
        {
          "internalType": "enum Avasara.Language",
          "name": "_language",
          "type": "uint8"
        },
        {
          "internalType": "uint8",
          "name": "_yearsOfExperience",
          "type": "uint8"
        }
      ],
      "name": "registerUser",
      "outputs": [],
      "stateMutability": "nonpayable",
      "type": "function"
    },
    {
      "inputs": [
        {
          "internalType": "uint256",
          "name": "",
          "type": "uint256"
        }
      ],
      "name": "registeredUsers",
      "outputs": [
        {
          "internalType": "address",
          "name": "",
          "type": "address"
        }
      ],
      "stateMutability": "view",
      "type": "function"
    },
    {
      "inputs": [
        {
          "internalType": "bytes32",
          "name": "_ipfsHash",
          "type": "bytes32"
        },
        {
          "internalType": "uint8",
          "name": "_location",
          "type": "uint8"
        },
        {
          "internalType": "uint8",
          "name": "_primarySkill",
          "type": "uint8"
        },
        {
          "internalType": "uint8",
          "name": "_secondarySkill",
          "type": "uint8"
        },
        {
          "internalType": "enum Avasara.ProfessionalStatus",
          "name": "_status",
          "type": "uint8"
        },
        {
          "internalType": "enum Avasara.Language",
          "name": "_language",
          "type": "uint8"
        },
        {
          "internalType": "uint8",
          "name": "_yearsOfExperience",
          "type": "uint8"
        }
      ],
      "name": "updateProfile",
      "outputs": [],
      "stateMutability": "nonpayable",
      "type": "function"
    },
    {
      "inputs": [
        {
          "internalType": "address",
          "name": "",
          "type": "address"
        }
      ],
      "name": "userProfiles",
      "outputs": [
        {
          "internalType": "bytes32",
          "name": "ipfsHash",
          "type": "bytes32"
        },
        {
          "internalType": "uint8",
          "name": "location",
          "type": "uint8"
        },
        {
          "internalType": "uint8",
          "name": "primarySkill",
          "type": "uint8"
        },
        {
          "internalType": "uint8",
          "name": "secondarySkill",
          "type": "uint8"
        },
        {
          "internalType": "enum Avasara.ProfessionalStatus",
          "name": "status",
          "type": "uint8"
        },
        {
          "internalType": "enum Avasara.Language",
          "name": "language",
          "type": "uint8"
        },
        {
          "internalType": "uint8",
          "name": "yearsOfExperience",
          "type": "uint8"
        },
        {
          "internalType": "bool",
          "name": "exists",
          "type": "bool"
        }
      ],
      "stateMutability": "view",
      "type": "function"
    },
    {
      "inputs": [
        {
          "internalType": "uint8",
          "name": "",
          "type": "uint8"
        },
        {
          "internalType": "uint256",
          "name": "",
          "type": "uint256"
        }
      ],
      "name": "usersByLocation",
      "outputs": [
        {
          "internalType": "address",
          "name": "",
          "type": "address"
        }
      ],
      "stateMutability": "view",
      "type": "function"
    },
    {
      "inputs": [
        {
          "internalType": "uint8",
          "name": "",
          "type": "uint8"
        },
        {
          "internalType": "uint256",
          "name": "",
          "type": "uint256"
        }
      ],
      "name": "usersBySkill",
      "outputs": [
        {
          "internalType": "address",
          "name": "",
          "type": "address"
        }
      ],
      "stateMutability": "view",
      "type": "function"
    }
  ],
  "bytecode": "0x6080604052348015600f57600080fd5b506123418061001f6000396000f3fe608060405234801561001057600080fd5b50600436106100f55760003560e01c8063987ee15611610097578063d91f2fa511610066578063d91f2fa5146102eb578063dae54f951461031b578063e1e014901461034b578063f160a7f414610367576100f5565b8063987ee1561461023d5780639be572f61461026d578063bae930451461028b578063d10a5bb8146102bb576100f5565b8063459e9fd7116100d3578063459e9fd7146101915780637259e0f8146101c157806381693725146101f1578063896e42ad14610221576100f5565b8063199435a5146100fa578063332d56d71461012a5780633596d12614610161575b600080fd5b610114600480360381019061010f91906119ea565b610397565b6040516101219190611b2d565b60405180910390f35b610144600480360381019061013f9190611b7b565b6104f4565b604051610158989796959493929190611caa565b60405180910390f35b61017b60048036038101906101769190611d28565b610597565b6040516101889190611b2d565b60405180910390f35b6101ab60048036038101906101a69190611d55565b61063e565b6040516101b89190611da4565b60405180910390f35b6101db60048036038101906101d69190611dbf565b61068c565b6040516101e89190611da4565b60405180910390f35b61020b60048036038101906102069190611d28565b6106cb565b6040516102189190611dfb565b60405180910390f35b61023b60048036038101906102369190611e8c565b6106f1565b005b61025760048036038101906102529190611b7b565b610bb9565b604051610264919061201b565b60405180910390f35b610275610daf565b6040516102829190611dfb565b60405180910390f35b6102a560048036038101906102a091906119ea565b610dbc565b6040516102b29190611b2d565b60405180910390f35b6102d560048036038101906102d09190611d28565b610f19565b6040516102e29190611dfb565b60405180910390f35b61030560048036038101906103009190612037565b610f3f565b6040516103129190611b2d565b60405180910390f35b61033560048036038101906103309190611d28565b611080565b6040516103429190611b2d565b60405180910390f35b61036560048036038101906103609190611e8c565b611127565b005b610381600480360381019061037c9190611d55565b611568565b60405161038e9190611da4565b60405180910390f35b60606000600360008660ff1660ff1681526020019081526020016000209050600083856103c491906120a6565b905081805490508111156103da57818054905090505b600085826103e891906120da565b905060008167ffffffffffffffff8111156104065761040561210e565b5b6040519080825280602002602001820160405280156104345781602001602082028036833780820191505090505b50905060005b828110156104e55784818961044f91906120a6565b815481106104605761045f61213d565b5b9060005260206000200160009054906101000a900473ffffffffffffffffffffffffffffffffffffffff1682828151811061049e5761049d61213d565b5b602002602001019073ffffffffffffffffffffffffffffffffffffffff16908173ffffffffffffffffffffffffffffffffffffffff1681525050808060010191505061043a565b50809450505050509392505050565b60006020528060005260406000206000915090508060000154908060010160009054906101000a900460ff16908060010160019054906101000a900460ff16908060010160029054906101000a900460ff16908060010160039054906101000a900460ff16908060010160049054906101000a900460ff16908060010160059054906101000a900460ff16908060010160069054906101000a900460ff16905088565b6060600360008360ff1660ff16815260200190815260200160002080548060200260200160405190810160405280929190818152602001828054801561063257602002820191906000526020600020905b8160009054906101000a900473ffffffffffffffffffffffffffffffffffffffff1673ffffffffffffffffffffffffffffffffffffffff16815260200190600101908083116105e8575b50505050509050919050565b6003602052816000526040600020818154811061065a57600080fd5b906000526020600020016000915091509054906101000a900473ffffffffffffffffffffffffffffffffffffffff1681565b6001818154811061069c57600080fd5b906000526020600020016000915054906101000a900473ffffffffffffffffffffffffffffffffffffffff1681565b6000600260008360ff1660ff168152602001908152602001600020805490509050919050565b6000803373ffffffffffffffffffffffffffffffffffffffff1673ffffffffffffffffffffffffffffffffffffffff16815260200190815260200160002060010160069054906101000a900460ff1615610780576040517f08c379a0000000000000000000000000000000000000000000000000000000008152600401610777906121c9565b60405180910390fd5b60328160ff1611156107c7576040517f08c379a00000000000000000000000000000000000000000000000000000000081526004016107be90612235565b60405180910390fd5b6040518061010001604052808881526020018760ff1681526020018660ff1681526020018560ff16815260200184600481111561080757610806611bd0565b5b815260200183600581111561081f5761081e611bd0565b5b81526020018260ff168152602001600115158152506000803373ffffffffffffffffffffffffffffffffffffffff1673ffffffffffffffffffffffffffffffffffffffff1681526020019081526020016000206000820151816000015560208201518160010160006101000a81548160ff021916908360ff16021790555060408201518160010160016101000a81548160ff021916908360ff16021790555060608201518160010160026101000a81548160ff021916908360ff16021790555060808201518160010160036101000a81548160ff0219169083600481111561090a57610909611bd0565b5b021790555060a08201518160010160046101000a81548160ff0219169083600581111561093a57610939611bd0565b5b021790555060c08201518160010160056101000a81548160ff021916908360ff16021790555060e08201518160010160066101000a81548160ff0219169083151502179055509050506001339080600181540180825580915050600190039060005260206000200160009091909190916101000a81548173ffffffffffffffffffffffffffffffffffffffff021916908373ffffffffffffffffffffffffffffffffffffffff160217905550600260008660ff1660ff168152602001908152602001600020339080600181540180825580915050600190039060005260206000200160009091909190916101000a81548173ffffffffffffffffffffffffffffffffffffffff021916908373ffffffffffffffffffffffffffffffffffffffff1602179055508360ff168560ff1614610ae857600260008560ff1660ff168152602001908152602001600020339080600181540180825580915050600190039060005260206000200160009091909190916101000a81548173ffffffffffffffffffffffffffffffffffffffff021916908373ffffffffffffffffffffffffffffffffffffffff1602179055505b600360008760ff1660ff168152602001908152602001600020339080600181540180825580915050600190039060005260206000200160009091909190916101000a81548173ffffffffffffffffffffffffffffffffffffffff021916908373ffffffffffffffffffffffffffffffffffffffff1602179055503373ffffffffffffffffffffffffffffffffffffffff167f4c5d15f5779ae1ecd7d55bd3283d898e29c35743d172bd7b83a16e17bc0afe2a88604051610ba89190612255565b60405180910390a250505050505050565b610bc16118fc565b6000808373ffffffffffffffffffffffffffffffffffffffff1673ffffffffffffffffffffffffffffffffffffffff16815260200190815260200160002060010160069054906101000a900460ff16610c4f576040517f08c379a0000000000000000000000000000000000000000000000000000000008152600401610c46906122bc565b60405180910390fd5b6000808373ffffffffffffffffffffffffffffffffffffffff1673ffffffffffffffffffffffffffffffffffffffff16815260200190815260200160002060405180610100016040529081600082015481526020016001820160009054906101000a900460ff1660ff1660ff1681526020016001820160019054906101000a900460ff1660ff1660ff1681526020016001820160029054906101000a900460ff1660ff1660ff1681526020016001820160039054906101000a900460ff166004811115610d1f57610d1e611bd0565b5b6004811115610d3157610d30611bd0565b5b81526020016001820160049054906101000a900460ff166005811115610d5a57610d59611bd0565b5b6005811115610d6c57610d6b611bd0565b5b81526020016001820160059054906101000a900460ff1660ff1660ff1681526020016001820160069054906101000a900460ff1615151515815250509050919050565b6000600180549050905090565b60606000600260008660ff1660ff168152602001908152602001600020905060008385610de991906120a6565b90508180549050811115610dff57818054905090505b60008582610e0d91906120da565b905060008167ffffffffffffffff811115610e2b57610e2a61210e565b5b604051908082528060200260200182016040528015610e595781602001602082028036833780820191505090505b50905060005b82811015610f0a57848189610e7491906120a6565b81548110610e8557610e8461213d565b5b9060005260206000200160009054906101000a900473ffffffffffffffffffffffffffffffffffffffff16828281518110610ec357610ec261213d565b5b602002602001019073ffffffffffffffffffffffffffffffffffffffff16908173ffffffffffffffffffffffffffffffffffffffff16815250508080600101915050610e5f565b50809450505050509392505050565b6000600360008360ff1660ff168152602001908152602001600020805490509050919050565b606060008284610f4f91906120a6565b9050600180549050811115610f675760018054905090505b60008482610f7591906120da565b905060008167ffffffffffffffff811115610f9357610f9261210e565b5b604051908082528060200260200182016040528015610fc15781602001602082028036833780820191505090505b50905060005b828110156110735760018188610fdd91906120a6565b81548110610fee57610fed61213d565b5b9060005260206000200160009054906101000a900473ffffffffffffffffffffffffffffffffffffffff1682828151811061102c5761102b61213d565b5b602002602001019073ffffffffffffffffffffffffffffffffffffffff16908173ffffffffffffffffffffffffffffffffffffffff16815250508080600101915050610fc7565b5080935050505092915050565b6060600260008360ff1660ff16815260200190815260200160002080548060200260200160405190810160405280929190818152602001828054801561111b57602002820191906000526020600020905b8160009054906101000a900473ffffffffffffffffffffffffffffffffffffffff1673ffffffffffffffffffffffffffffffffffffffff16815260200190600101908083116110d1575b50505050509050919050565b6000803373ffffffffffffffffffffffffffffffffffffffff1673ffffffffffffffffffffffffffffffffffffffff16815260200190815260200160002060010160069054906101000a900460ff166111b5576040517f08c379a00000000000000000000000000000000000000000000000000000000081526004016111ac906122bc565b60405180910390fd5b60328160ff1611156111fc576040517f08c379a00000000000000000000000000000000000000000000000000000000081526004016111f390612235565b60405180910390fd5b60008060003373ffffffffffffffffffffffffffffffffffffffff1673ffffffffffffffffffffffffffffffffffffffff16815260200190815260200160002090506112598160010160019054906101000a900460ff16336115b6565b8060010160029054906101000a900460ff1660ff168160010160019054906101000a900460ff1660ff16146112a4576112a38160010160029054906101000a900460ff16336115b6565b5b6112bf8160010160009054906101000a900460ff1633611759565b878160000181905550868160010160006101000a81548160ff021916908360ff160217905550858160010160016101000a81548160ff021916908360ff160217905550848160010160026101000a81548160ff021916908360ff160217905550838160010160036101000a81548160ff0219169083600481111561134657611345611bd0565b5b0217905550828160010160046101000a81548160ff0219169083600581111561137257611371611bd0565b5b0217905550818160010160056101000a81548160ff021916908360ff160217905550600260008760ff1660ff168152602001908152602001600020339080600181540180825580915050600190039060005260206000200160009091909190916101000a81548173ffffffffffffffffffffffffffffffffffffffff021916908373ffffffffffffffffffffffffffffffffffffffff1602179055508460ff168660ff161461149657600260008660ff1660ff168152602001908152602001600020339080600181540180825580915050600190039060005260206000200160009091909190916101000a81548173ffffffffffffffffffffffffffffffffffffffff021916908373ffffffffffffffffffffffffffffffffffffffff1602179055505b600360008860ff1660ff168152602001908152602001600020339080600181540180825580915050600190039060005260206000200160009091909190916101000a81548173ffffffffffffffffffffffffffffffffffffffff021916908373ffffffffffffffffffffffffffffffffffffffff1602179055503373ffffffffffffffffffffffffffffffffffffffff167febdf3272c672f22c50e677def404048a324db7af96a8c98e787073cd3ea81aec896040516115569190612255565b60405180910390a25050505050505050565b6002602052816000526040600020818154811061158457600080fd5b906000526020600020016000915091509054906101000a900473ffffffffffffffffffffffffffffffffffffffff1681565b6000600260008460ff1660ff168152602001908152602001600020905060005b8180549050811015611753578273ffffffffffffffffffffffffffffffffffffffff1682828154811061160c5761160b61213d565b5b9060005260206000200160009054906101000a900473ffffffffffffffffffffffffffffffffffffffff1673ffffffffffffffffffffffffffffffffffffffff160361174657816001838054905061166491906120da565b815481106116755761167461213d565b5b9060005260206000200160009054906101000a900473ffffffffffffffffffffffffffffffffffffffff168282815481106116b3576116b261213d565b5b9060005260206000200160006101000a81548173ffffffffffffffffffffffffffffffffffffffff021916908373ffffffffffffffffffffffffffffffffffffffff1602179055508180548061170c5761170b6122dc565b5b6001900381819060005260206000200160006101000a81549073ffffffffffffffffffffffffffffffffffffffff02191690559055611753565b80806001019150506115d6565b50505050565b6000600360008460ff1660ff168152602001908152602001600020905060005b81805490508110156118f6578273ffffffffffffffffffffffffffffffffffffffff168282815481106117af576117ae61213d565b5b9060005260206000200160009054906101000a900473ffffffffffffffffffffffffffffffffffffffff1673ffffffffffffffffffffffffffffffffffffffff16036118e957816001838054905061180791906120da565b815481106118185761181761213d565b5b9060005260206000200160009054906101000a900473ffffffffffffffffffffffffffffffffffffffff168282815481106118565761185561213d565b5b9060005260206000200160006101000a81548173ffffffffffffffffffffffffffffffffffffffff021916908373ffffffffffffffffffffffffffffffffffffffff160217905550818054806118af576118ae6122dc565b5b6001900381819060005260206000200160006101000a81549073ffffffffffffffffffffffffffffffffffffffff021916905590556118f6565b8080600101915050611779565b50505050565b60405180610100016040528060008019168152602001600060ff168152602001600060ff168152602001600060ff1681526020016000600481111561194457611943611bd0565b5b81526020016000600581111561195d5761195c611bd0565b5b8152602001600060ff1681526020016000151581525090565b600080fd5b600060ff82169050919050565b6119918161197b565b811461199c57600080fd5b50565b6000813590506119ae81611988565b92915050565b6000819050919050565b6119c7816119b4565b81146119d257600080fd5b50565b6000813590506119e4816119be565b92915050565b600080600060608486031215611a0357611a02611976565b5b6000611a118682870161199f565b9350506020611a22868287016119d5565b9250506040611a33868287016119d5565b9150509250925092565b600081519050919050565b600082825260208201905092915050565b6000819050602082019050919050565b600073ffffffffffffffffffffffffffffffffffffffff82169050919050565b6000611a9482611a69565b9050919050565b611aa481611a89565b82525050565b6000611ab68383611a9b565b60208301905092915050565b6000602082019050919050565b6000611ada82611a3d565b611ae48185611a48565b9350611aef83611a59565b8060005b83811015611b20578151611b078882611aaa565b9750611b1283611ac2565b925050600181019050611af3565b5085935050505092915050565b60006020820190508181036000830152611b478184611acf565b905092915050565b611b5881611a89565b8114611b6357600080fd5b50565b600081359050611b7581611b4f565b92915050565b600060208284031215611b9157611b90611976565b5b6000611b9f84828501611b66565b91505092915050565b6000819050919050565b611bbb81611ba8565b82525050565b611bca8161197b565b82525050565b7f4e487b7100000000000000000000000000000000000000000000000000000000600052602160045260246000fd5b60058110611c1057611c0f611bd0565b5b50565b6000819050611c2182611bff565b919050565b6000611c3182611c13565b9050919050565b611c4181611c26565b82525050565b60068110611c5857611c57611bd0565b5b50565b6000819050611c6982611c47565b919050565b6000611c7982611c5b565b9050919050565b611c8981611c6e565b82525050565b60008115159050919050565b611ca481611c8f565b82525050565b600061010082019050611cc0600083018b611bb2565b611ccd602083018a611bc1565b611cda6040830189611bc1565b611ce76060830188611bc1565b611cf46080830187611c38565b611d0160a0830186611c80565b611d0e60c0830185611bc1565b611d1b60e0830184611c9b565b9998505050505050505050565b600060208284031215611d3e57611d3d611976565b5b6000611d4c8482850161199f565b91505092915050565b60008060408385031215611d6c57611d6b611976565b5b6000611d7a8582860161199f565b9250506020611d8b858286016119d5565b9150509250929050565b611d9e81611a89565b82525050565b6000602082019050611db96000830184611d95565b92915050565b600060208284031215611dd557611dd4611976565b5b6000611de3848285016119d5565b91505092915050565b611df5816119b4565b82525050565b6000602082019050611e106000830184611dec565b92915050565b611e1f81611ba8565b8114611e2a57600080fd5b50565b600081359050611e3c81611e16565b92915050565b60058110611e4f57600080fd5b50565b600081359050611e6181611e42565b92915050565b60068110611e7457600080fd5b50565b600081359050611e8681611e67565b92915050565b600080600080600080600060e0888a031215611eab57611eaa611976565b5b6000611eb98a828b01611e2d565b9750506020611eca8a828b0161199f565b9650506040611edb8a828b0161199f565b9550506060611eec8a828b0161199f565b9450506080611efd8a828b01611e52565b93505060a0611f0e8a828b01611e77565b92505060c0611f1f8a828b0161199f565b91505092959891949750929550565b611f3781611ba8565b82525050565b611f468161197b565b82525050565b611f5581611c26565b82525050565b611f6481611c6e565b82525050565b611f7381611c8f565b82525050565b61010082016000820151611f906000850182611f2e565b506020820151611fa36020850182611f3d565b506040820151611fb66040850182611f3d565b506060820151611fc96060850182611f3d565b506080820151611fdc6080850182611f4c565b5060a0820151611fef60a0850182611f5b565b5060c082015161200260c0850182611f3d565b5060e082015161201560e0850182611f6a565b50505050565b6000610100820190506120316000830184611f79565b92915050565b6000806040838503121561204e5761204d611976565b5b600061205c858286016119d5565b925050602061206d858286016119d5565b9150509250929050565b7f4e487b7100000000000000000000000000000000000000000000000000000000600052601160045260246000fd5b60006120b1826119b4565b91506120bc836119b4565b92508282019050808211156120d4576120d3612077565b5b92915050565b60006120e5826119b4565b91506120f0836119b4565b925082820390508181111561210857612107612077565b5b92915050565b7f4e487b7100000000000000000000000000000000000000000000000000000000600052604160045260246000fd5b7f4e487b7100000000000000000000000000000000000000000000000000000000600052603260045260246000fd5b600082825260208201905092915050565b7f5573657220616c72656164792072656769737465726564000000000000000000600082015250565b60006121b360178361216c565b91506121be8261217d565b602082019050919050565b600060208201905081810360008301526121e2816121a6565b9050919050565b7f496e76616c6964207965617273206f6620657870657269656e63650000000000600082015250565b600061221f601b8361216c565b915061222a826121e9565b602082019050919050565b6000602082019050818103600083015261224e81612212565b9050919050565b600060208201905061226a6000830184611bb2565b92915050565b7f55736572206e6f74207265676973746572656400000000000000000000000000600082015250565b60006122a660138361216c565b91506122b182612270565b602082019050919050565b600060208201905081810360008301526122d581612299565b9050919050565b7f4e487b7100000000000000000000000000000000000000000000000000000000600052603160045260246000fdfea26469706673582212203185807ccc044e2597ef06834347dba308996aa04773078a58344380312d207764736f6c634300081c0033",
  "linkReferences": {},
  "deployedLinkReferences": {}
}